{
  "_format": "hh-sol-artifact-1",
  "contractName": "Marketplace",
  "sourceName": "contracts/Marketplace.sol",
  "abi": [
    {
      "inputs": [
        {
          "internalType": "uint256",
          "name": "token_id",
          "type": "uint256"
        },
        {
          "internalType": "uint256",
          "name": "price",
          "type": "uint256"
        }
      ],
      "name": "addListing",
      "outputs": [],
      "stateMutability": "nonpayable",
      "type": "function"
    },
    {
      "inputs": [
        {
          "internalType": "uint256",
          "name": "listing_id",
          "type": "uint256"
        }
      ],
      "name": "buy",
      "outputs": [],
      "stateMutability": "payable",
      "type": "function"
    },
    {
      "inputs": [
        {
          "internalType": "uint256",
          "name": "index",
          "type": "uint256"
        }
      ],
      "name": "getActiveListings",
      "outputs": [
        {
          "internalType": "uint256",
          "name": "",
          "type": "uint256"
        }
      ],
      "stateMutability": "view",
      "type": "function"
    },
    {
      "inputs": [],
      "name": "getActiveListingsCount",
      "outputs": [
        {
          "internalType": "uint256",
          "name": "",
          "type": "uint256"
        }
      ],
      "stateMutability": "view",
      "type": "function"
    },
    {
      "inputs": [
        {
          "internalType": "address",
          "name": "owner",
          "type": "address"
        },
        {
          "internalType": "uint256",
          "name": "index",
          "type": "uint256"
        }
      ],
      "name": "getListingsByOwner",
      "outputs": [
        {
          "internalType": "uint256",
          "name": "",
          "type": "uint256"
        }
      ],
      "stateMutability": "view",
      "type": "function"
    },
    {
      "inputs": [
        {
          "internalType": "address",
          "name": "owner",
          "type": "address"
        }
      ],
      "name": "getListingsByOwnerCount",
      "outputs": [
        {
          "internalType": "uint256",
          "name": "",
          "type": "uint256"
        }
      ],
      "stateMutability": "view",
      "type": "function"
    },
    {
      "inputs": [],
      "name": "listing_count",
      "outputs": [
        {
          "internalType": "uint256",
          "name": "",
          "type": "uint256"
        }
      ],
      "stateMutability": "view",
      "type": "function"
    },
    {
      "inputs": [
        {
          "internalType": "uint256",
          "name": "",
          "type": "uint256"
        }
      ],
      "name": "listings",
      "outputs": [
        {
          "internalType": "address",
          "name": "owner",
          "type": "address"
        },
        {
          "internalType": "bool",
          "name": "is_active",
          "type": "bool"
        },
        {
          "internalType": "uint256",
          "name": "token_id",
          "type": "uint256"
        },
        {
          "internalType": "uint256",
          "name": "price",
          "type": "uint256"
        }
      ],
      "stateMutability": "view",
      "type": "function"
    },
    {
      "inputs": [
        {
          "internalType": "uint256",
          "name": "listing_id",
          "type": "uint256"
        }
      ],
      "name": "removeListing",
      "outputs": [],
      "stateMutability": "nonpayable",
      "type": "function"
    }
  ],
  "bytecode": "0x608060405260008055732193902957d2f83c313cb254eda0cf5afc07ef6c600260006101000a81548173ffffffffffffffffffffffffffffffffffffffff021916908373ffffffffffffffffffffffffffffffffffffffff16021790555034801561006957600080fd5b5061107d806100796000396000f3fe6080604052600436106100865760003560e01c8063836cf6e911610059578063836cf6e914610147578063a4dae28614610170578063d96a094a146101ad578063de74e57b146101c9578063e69875011461020957610086565b8063479ad4c31461008b5780635dcd4015146100b45780637b55927c146100df5780637c499bfa1461010a575b600080fd5b34801561009757600080fd5b506100b260048036038101906100ad9190610b6a565b610246565b005b3480156100c057600080fd5b506100c9610426565b6040516100d69190610ba6565b60405180910390f35b3480156100eb57600080fd5b506100f461042c565b6040516101019190610ba6565b60405180910390f35b34801561011657600080fd5b50610131600480360381019061012c9190610c1f565b610490565b60405161013e9190610ba6565b60405180910390f35b34801561015357600080fd5b5061016e60048036038101906101699190610c5f565b610578565b005b34801561017c57600080fd5b5061019760048036038101906101929190610c9f565b6106f5565b6040516101a49190610ba6565b60405180910390f35b6101c760048036038101906101c29190610b6a565b6107c8565b005b3480156101d557600080fd5b506101f060048036038101906101eb9190610b6a565b610a42565b6040516102009493929190610cf6565b60405180910390f35b34801561021557600080fd5b50610230600480360381019061022b9190610b6a565b610a9f565b60405161023d9190610ba6565b60405180910390f35b3373ffffffffffffffffffffffffffffffffffffffff166001600083815260200190815260200160002060000160009054906101000a900473ffffffffffffffffffffffffffffffffffffffff1673ffffffffffffffffffffffffffffffffffffffff16146102ea576040517f08c379a00000000000000000000000000000000000000000000000000000000081526004016102e190610d98565b60405180910390fd5b6001600082815260200190815260200160002060000160149054906101000a900460ff1661034d576040517f08c379a000000000000000000000000000000000000000000000000000000000815260040161034490610e04565b60405180910390fd5b60006001600083815260200190815260200160002060000160146101000a81548160ff021916908315150217905550600260009054906101000a900473ffffffffffffffffffffffffffffffffffffffff1673ffffffffffffffffffffffffffffffffffffffff166323b872dd303360016000868152602001908152602001600020600101546040518463ffffffff1660e01b81526004016103f193929190610e24565b600060405180830381600087803b15801561040b57600080fd5b505af115801561041f573d6000803e3d6000fd5b5050505050565b60005481565b60008060005b600054811015610488576001600082815260200190815260200160002060000160149054906101000a900460ff1615610475576001826104729190610e8a565b91505b808061048090610ee0565b915050610432565b508091505090565b60008060005b60005481101561056b576001600082815260200190815260200160002060000160149054906101000a900460ff16801561053157508473ffffffffffffffffffffffffffffffffffffffff166001600083815260200190815260200160002060000160009054906101000a900473ffffffffffffffffffffffffffffffffffffffff1673ffffffffffffffffffffffffffffffffffffffff16145b156105585781841415610548578092505050610572565b6001826105559190610e8a565b91505b808061056390610ee0565b915050610496565b5060009150505b92915050565b60405180608001604052803373ffffffffffffffffffffffffffffffffffffffff16815260200160011515815260200183815260200182815250600160008054815260200190815260200160002060008201518160000160006101000a81548173ffffffffffffffffffffffffffffffffffffffff021916908373ffffffffffffffffffffffffffffffffffffffff16021790555060208201518160000160146101000a81548160ff021916908315150217905550604082015181600101556060820151816002015590505061065a6001600054610b1990919063ffffffff16565b600081905550600260009054906101000a900473ffffffffffffffffffffffffffffffffffffffff1673ffffffffffffffffffffffffffffffffffffffff166323b872dd3330856040518463ffffffff1660e01b81526004016106bf93929190610e24565b600060405180830381600087803b1580156106d957600080fd5b505af11580156106ed573d6000803e3d6000fd5b505050505050565b60008060005b6000548110156107be576001600082815260200190815260200160002060000160149054906101000a900460ff16801561079657508373ffffffffffffffffffffffffffffffffffffffff166001600083815260200190815260200160002060000160009054906101000a900473ffffffffffffffffffffffffffffffffffffffff1673ffffffffffffffffffffffffffffffffffffffff16145b156107ab576001826107a89190610e8a565b91505b80806107b690610ee0565b9150506106fb565b5080915050919050565b6001600082815260200190815260200160002060000160149054906101000a900460ff1661082b576040517f08c379a000000000000000000000000000000000000000000000000000000000815260040161082290610e04565b60405180910390fd5b34600160008381526020019081526020016000206002015414610883576040517f08c379a000000000000000000000000000000000000000000000000000000000815260040161087a90610f75565b60405180910390fd5b60006001600083815260200190815260200160002060000160146101000a81548160ff021916908315150217905550600260009054906101000a900473ffffffffffffffffffffffffffffffffffffffff1673ffffffffffffffffffffffffffffffffffffffff166323b872dd303360016000868152602001908152602001600020600101546040518463ffffffff1660e01b815260040161092793929190610e24565b600060405180830381600087803b15801561094157600080fd5b505af1158015610955573d6000803e3d6000fd5b505050506000806001600084815260200190815260200160002060000160009054906101000a900473ffffffffffffffffffffffffffffffffffffffff1673ffffffffffffffffffffffffffffffffffffffff16346040516109b690610fc6565b60006040518083038185875af1925050503d80600081146109f3576040519150601f19603f3d011682016040523d82523d6000602084013e6109f8565b606091505b509150915081610a3d576040517f08c379a0000000000000000000000000000000000000000000000000000000008152600401610a3490611027565b60405180910390fd5b505050565b60016020528060005260406000206000915090508060000160009054906101000a900473ffffffffffffffffffffffffffffffffffffffff16908060000160149054906101000a900460ff16908060010154908060020154905084565b60008060005b600054811015610b0d576001600082815260200190815260200160002060000160149054906101000a900460ff1615610afa5781841415610aea578092505050610b14565b600182610af79190610e8a565b91505b8080610b0590610ee0565b915050610aa5565b5060009150505b919050565b60008183610b279190610e8a565b905092915050565b600080fd5b6000819050919050565b610b4781610b34565b8114610b5257600080fd5b50565b600081359050610b6481610b3e565b92915050565b600060208284031215610b8057610b7f610b2f565b5b6000610b8e84828501610b55565b91505092915050565b610ba081610b34565b82525050565b6000602082019050610bbb6000830184610b97565b92915050565b600073ffffffffffffffffffffffffffffffffffffffff82169050919050565b6000610bec82610bc1565b9050919050565b610bfc81610be1565b8114610c0757600080fd5b50565b600081359050610c1981610bf3565b92915050565b60008060408385031215610c3657610c35610b2f565b5b6000610c4485828601610c0a565b9250506020610c5585828601610b55565b9150509250929050565b60008060408385031215610c7657610c75610b2f565b5b6000610c8485828601610b55565b9250506020610c9585828601610b55565b9150509250929050565b600060208284031215610cb557610cb4610b2f565b5b6000610cc384828501610c0a565b91505092915050565b610cd581610be1565b82525050565b60008115159050919050565b610cf081610cdb565b82525050565b6000608082019050610d0b6000830187610ccc565b610d186020830186610ce7565b610d256040830185610b97565b610d326060830184610b97565b95945050505050565b600082825260208201905092915050565b7f4d757374206265206f776e657200000000000000000000000000000000000000600082015250565b6000610d82600d83610d3b565b9150610d8d82610d4c565b602082019050919050565b60006020820190508181036000830152610db181610d75565b9050919050565b7f4d75737420626520616374697665000000000000000000000000000000000000600082015250565b6000610dee600e83610d3b565b9150610df982610db8565b602082019050919050565b60006020820190508181036000830152610e1d81610de1565b9050919050565b6000606082019050610e396000830186610ccc565b610e466020830185610ccc565b610e536040830184610b97565b949350505050565b7f4e487b7100000000000000000000000000000000000000000000000000000000600052601160045260246000fd5b6000610e9582610b34565b9150610ea083610b34565b9250827fffffffffffffffffffffffffffffffffffffffffffffffffffffffffffffffff03821115610ed557610ed4610e5b565b5b828201905092915050565b6000610eeb82610b34565b91507fffffffffffffffffffffffffffffffffffffffffffffffffffffffffffffffff821415610f1e57610f1d610e5b565b5b600182019050919050565b7f4d75737420706179207468652070726963650000000000000000000000000000600082015250565b6000610f5f601283610d3b565b9150610f6a82610f29565b602082019050919050565b60006020820190508181036000830152610f8e81610f52565b9050919050565b600081905092915050565b50565b6000610fb0600083610f95565b9150610fbb82610fa0565b600082019050919050565b6000610fd182610fa3565b9150819050919050565b7f4661696c656420746f2073656e64204574686572000000000000000000000000600082015250565b6000611011601483610d3b565b915061101c82610fdb565b602082019050919050565b6000602082019050818103600083015261104081611004565b905091905056fea264697066735822122076ae0585b57f94e1b2d8d166c6b82182c73e8dd1b1868dec7fbe7c40c9568fa564736f6c634300080b0033",
  "linkReferences": {},
  "deployedLinkReferences": {}
}