{
  "_format": "hh-sol-artifact-1",
  "contractName": "NFT",
  "sourceName": "contracts/NFT.sol",
  "abi": [
    {
      "inputs": [],
      "stateMutability": "nonpayable",
      "type": "constructor"
    },
    {
      "anonymous": false,
      "inputs": [
        {
          "indexed": true,
          "internalType": "address",
          "name": "owner",
          "type": "address"
        },
        {
          "indexed": true,
          "internalType": "address",
          "name": "approved",
          "type": "address"
        },
        {
          "indexed": true,
          "internalType": "uint256",
          "name": "tokenId",
          "type": "uint256"
        }
      ],
      "name": "Approval",
      "type": "event"
    },
    {
      "anonymous": false,
      "inputs": [
        {
          "indexed": true,
          "internalType": "address",
          "name": "owner",
          "type": "address"
        },
        {
          "indexed": true,
          "internalType": "address",
          "name": "operator",
          "type": "address"
        },
        {
          "indexed": false,
          "internalType": "bool",
          "name": "approved",
          "type": "bool"
        }
      ],
      "name": "ApprovalForAll",
      "type": "event"
    },
    {
      "anonymous": false,
      "inputs": [
        {
          "indexed": true,
          "internalType": "address",
          "name": "from",
          "type": "address"
        },
        {
          "indexed": true,
          "internalType": "address",
          "name": "to",
          "type": "address"
        },
        {
          "indexed": true,
          "internalType": "uint256",
          "name": "tokenId",
          "type": "uint256"
        }
      ],
      "name": "Transfer",
      "type": "event"
    },
    {
      "inputs": [
        {
          "internalType": "address",
          "name": "to",
          "type": "address"
        },
        {
          "internalType": "uint256",
          "name": "tokenId",
          "type": "uint256"
        }
      ],
      "name": "approve",
      "outputs": [],
      "stateMutability": "nonpayable",
      "type": "function"
    },
    {
      "inputs": [
        {
          "internalType": "address",
          "name": "owner",
          "type": "address"
        }
      ],
      "name": "balanceOf",
      "outputs": [
        {
          "internalType": "uint256",
          "name": "",
          "type": "uint256"
        }
      ],
      "stateMutability": "view",
      "type": "function"
    },
    {
      "inputs": [
        {
          "internalType": "uint256",
          "name": "tokenId",
          "type": "uint256"
        }
      ],
      "name": "getApproved",
      "outputs": [
        {
          "internalType": "address",
          "name": "",
          "type": "address"
        }
      ],
      "stateMutability": "view",
      "type": "function"
    },
    {
      "inputs": [
        {
          "internalType": "address",
          "name": "owner",
          "type": "address"
        },
        {
          "internalType": "address",
          "name": "operator",
          "type": "address"
        }
      ],
      "name": "isApprovedForAll",
      "outputs": [
        {
          "internalType": "bool",
          "name": "",
          "type": "bool"
        }
      ],
      "stateMutability": "view",
      "type": "function"
    },
    {
      "inputs": [],
      "name": "mint",
      "outputs": [],
      "stateMutability": "nonpayable",
      "type": "function"
    },
    {
      "inputs": [],
      "name": "name",
      "outputs": [
        {
          "internalType": "string",
          "name": "",
          "type": "string"
        }
      ],
      "stateMutability": "view",
      "type": "function"
    },
    {
      "inputs": [
        {
          "internalType": "uint256",
          "name": "tokenId",
          "type": "uint256"
        }
      ],
      "name": "ownerOf",
      "outputs": [
        {
          "internalType": "address",
          "name": "",
          "type": "address"
        }
      ],
      "stateMutability": "view",
      "type": "function"
    },
    {
      "inputs": [
        {
          "internalType": "address",
          "name": "from",
          "type": "address"
        },
        {
          "internalType": "address",
          "name": "to",
          "type": "address"
        },
        {
          "internalType": "uint256",
          "name": "tokenId",
          "type": "uint256"
        }
      ],
      "name": "safeTransferFrom",
      "outputs": [],
      "stateMutability": "nonpayable",
      "type": "function"
    },
    {
      "inputs": [
        {
          "internalType": "address",
          "name": "from",
          "type": "address"
        },
        {
          "internalType": "address",
          "name": "to",
          "type": "address"
        },
        {
          "internalType": "uint256",
          "name": "tokenId",
          "type": "uint256"
        },
        {
          "internalType": "bytes",
          "name": "data",
          "type": "bytes"
        }
      ],
      "name": "safeTransferFrom",
      "outputs": [],
      "stateMutability": "nonpayable",
      "type": "function"
    },
    {
      "inputs": [
        {
          "internalType": "address",
          "name": "operator",
          "type": "address"
        },
        {
          "internalType": "bool",
          "name": "approved",
          "type": "bool"
        }
      ],
      "name": "setApprovalForAll",
      "outputs": [],
      "stateMutability": "nonpayable",
      "type": "function"
    },
    {
      "inputs": [],
      "name": "supply",
      "outputs": [
        {
          "internalType": "uint256",
          "name": "",
          "type": "uint256"
        }
      ],
      "stateMutability": "view",
      "type": "function"
    },
    {
      "inputs": [
        {
          "internalType": "bytes4",
          "name": "interfaceId",
          "type": "bytes4"
        }
      ],
      "name": "supportsInterface",
      "outputs": [
        {
          "internalType": "bool",
          "name": "",
          "type": "bool"
        }
      ],
      "stateMutability": "view",
      "type": "function"
    },
    {
      "inputs": [],
      "name": "symbol",
      "outputs": [
        {
          "internalType": "string",
          "name": "",
          "type": "string"
        }
      ],
      "stateMutability": "view",
      "type": "function"
    },
    {
      "inputs": [
        {
          "internalType": "uint256",
          "name": "tokenId",
          "type": "uint256"
        }
      ],
      "name": "tokenURI",
      "outputs": [
        {
          "internalType": "string",
          "name": "",
          "type": "string"
        }
      ],
      "stateMutability": "view",
      "type": "function"
    },
    {
      "inputs": [
        {
          "internalType": "address",
          "name": "from",
          "type": "address"
        },
        {
          "internalType": "address",
          "name": "to",
          "type": "address"
        },
        {
          "internalType": "uint256",
          "name": "tokenId",
          "type": "uint256"
        }
      ],
      "name": "transferFrom",
      "outputs": [],
      "stateMutability": "nonpayable",
      "type": "function"
    }
  ],
  "bytecode": "0x60806040523480156200001157600080fd5b506040518060400160405280600c81526020017f506f6b656d6f6e204361726400000000000000000000000000000000000000008152506040518060400160405280600381526020017f5443470000000000000000000000000000000000000000000000000000000000815250816000908051906020019062000096929190620000b8565b508060019080519060200190620000af929190620000b8565b505050620001cd565b828054620000c69062000197565b90600052602060002090601f016020900481019282620000ea576000855562000136565b82601f106200010557805160ff191683800117855562000136565b8280016001018555821562000136579182015b828111156200013557825182559160200191906001019062000118565b5b50905062000145919062000149565b5090565b5b80821115620001645760008160009055506001016200014a565b5090565b7f4e487b7100000000000000000000000000000000000000000000000000000000600052602260045260246000fd5b60006002820490506001821680620001b057607f821691505b60208210811415620001c757620001c662000168565b5b50919050565b61254380620001dd6000396000f3fe608060405234801561001057600080fd5b50600436106100f55760003560e01c806342842e0e11610097578063a22cb46511610066578063a22cb46514610272578063b88d4fde1461028e578063c87b56dd146102aa578063e985e9c5146102da576100f5565b806342842e0e146101d85780636352211e146101f457806370a082311461022457806395d89b4114610254576100f5565b8063081812fc116100d3578063081812fc14610166578063095ea7b3146101965780631249c58b146101b257806323b872dd146101bc576100f5565b806301ffc9a7146100fa578063047fc9aa1461012a57806306fdde0314610148575b600080fd5b610114600480360381019061010f91906117b0565b61030a565b60405161012191906117f8565b60405180910390f35b61013261031c565b60405161013f919061182c565b60405180910390f35b610150610322565b60405161015d91906118e0565b60405180910390f35b610180600480360381019061017b919061192e565b6103b4565b60405161018d919061199c565b60405180910390f35b6101b060048036038101906101ab91906119e3565b6103fa565b005b6101ba610512565b005b6101d660048036038101906101d19190611a23565b61053a565b005b6101f260048036038101906101ed9190611a23565b61059a565b005b61020e6004803603810190610209919061192e565b6105ba565b60405161021b919061199c565b60405180910390f35b61023e60048036038101906102399190611a76565b610641565b60405161024b919061182c565b60405180910390f35b61025c6106f9565b60405161026991906118e0565b60405180910390f35b61028c60048036038101906102879190611acf565b61078b565b005b6102a860048036038101906102a39190611c44565b6107a1565b005b6102c460048036038101906102bf919061192e565b610803565b6040516102d191906118e0565b60405180910390f35b6102f460048036038101906102ef9190611cc7565b61086b565b60405161030191906117f8565b60405180910390f35b6000610315826108ff565b9050919050565b60065481565b60606000805461033190611d36565b80601f016020809104026020016040519081016040528092919081815260200182805461035d90611d36565b80156103aa5780601f1061037f576101008083540402835291602001916103aa565b820191906000526020600020905b81548152906001019060200180831161038d57829003601f168201915b5050505050905090565b60006103bf826109e1565b6004600083815260200190815260200160002060009054906101000a900473ffffffffffffffffffffffffffffffffffffffff169050919050565b6000610405826105ba565b90508073ffffffffffffffffffffffffffffffffffffffff168373ffffffffffffffffffffffffffffffffffffffff161415610476576040517f08c379a000000000000000000000000000000000000000000000000000000000815260040161046d90611dda565b60405180910390fd5b8073ffffffffffffffffffffffffffffffffffffffff16610495610a2c565b73ffffffffffffffffffffffffffffffffffffffff1614806104c457506104c3816104be610a2c565b61086b565b5b610503576040517f08c379a00000000000000000000000000000000000000000000000000000000081526004016104fa90611e6c565b60405180910390fd5b61050d8383610a34565b505050565b61051e33600654610aed565b6001600660008282546105319190611ebb565b92505081905550565b61054b610545610a2c565b82610d0b565b61058a576040517f08c379a000000000000000000000000000000000000000000000000000000000815260040161058190611f83565b60405180910390fd5b610595838383610da0565b505050565b6105b5838383604051806020016040528060008152506107a1565b505050565b6000806105c68361109a565b9050600073ffffffffffffffffffffffffffffffffffffffff168173ffffffffffffffffffffffffffffffffffffffff161415610638576040517f08c379a000000000000000000000000000000000000000000000000000000000815260040161062f90611fef565b60405180910390fd5b80915050919050565b60008073ffffffffffffffffffffffffffffffffffffffff168273ffffffffffffffffffffffffffffffffffffffff1614156106b2576040517f08c379a00000000000000000000000000000000000000000000000000000000081526004016106a990612081565b60405180910390fd5b600360008373ffffffffffffffffffffffffffffffffffffffff1673ffffffffffffffffffffffffffffffffffffffff168152602001908152602001600020549050919050565b60606001805461070890611d36565b80601f016020809104026020016040519081016040528092919081815260200182805461073490611d36565b80156107815780601f1061075657610100808354040283529160200191610781565b820191906000526020600020905b81548152906001019060200180831161076457829003601f168201915b5050505050905090565b61079d610796610a2c565b83836110d7565b5050565b6107b26107ac610a2c565b83610d0b565b6107f1576040517f08c379a00000000000000000000000000000000000000000000000000000000081526004016107e890611f83565b60405180910390fd5b6107fd84848484611244565b50505050565b606061080e826109e1565b60006108186112a0565b905060008151116108385760405180602001604052806000815250610863565b80610842846112b7565b6040516020016108539291906120dd565b6040516020818303038152906040525b915050919050565b6000600560008473ffffffffffffffffffffffffffffffffffffffff1673ffffffffffffffffffffffffffffffffffffffff16815260200190815260200160002060008373ffffffffffffffffffffffffffffffffffffffff1673ffffffffffffffffffffffffffffffffffffffff16815260200190815260200160002060009054906101000a900460ff16905092915050565b60007f80ac58cd000000000000000000000000000000000000000000000000000000007bffffffffffffffffffffffffffffffffffffffffffffffffffffffff1916827bffffffffffffffffffffffffffffffffffffffffffffffffffffffff191614806109ca57507f5b5e139f000000000000000000000000000000000000000000000000000000007bffffffffffffffffffffffffffffffffffffffffffffffffffffffff1916827bffffffffffffffffffffffffffffffffffffffffffffffffffffffff1916145b806109da57506109d98261138f565b5b9050919050565b6109ea816113f9565b610a29576040517f08c379a0000000000000000000000000000000000000000000000000000000008152600401610a2090611fef565b60405180910390fd5b50565b600033905090565b816004600083815260200190815260200160002060006101000a81548173ffffffffffffffffffffffffffffffffffffffff021916908373ffffffffffffffffffffffffffffffffffffffff160217905550808273ffffffffffffffffffffffffffffffffffffffff16610aa7836105ba565b73ffffffffffffffffffffffffffffffffffffffff167f8c5be1e5ebec7d5bd14f71427d1e84f3dd0314c0f7b2291e5b200ac8c7c3b92560405160405180910390a45050565b600073ffffffffffffffffffffffffffffffffffffffff168273ffffffffffffffffffffffffffffffffffffffff161415610b5d576040517f08c379a0000000000000000000000000000000000000000000000000000000008152600401610b549061214d565b60405180910390fd5b610b66816113f9565b15610ba6576040517f08c379a0000000000000000000000000000000000000000000000000000000008152600401610b9d906121b9565b60405180910390fd5b610bb460008383600161143a565b610bbd816113f9565b15610bfd576040517f08c379a0000000000000000000000000000000000000000000000000000000008152600401610bf4906121b9565b60405180910390fd5b6001600360008473ffffffffffffffffffffffffffffffffffffffff1673ffffffffffffffffffffffffffffffffffffffff16815260200190815260200160002060008282540192505081905550816002600083815260200190815260200160002060006101000a81548173ffffffffffffffffffffffffffffffffffffffff021916908373ffffffffffffffffffffffffffffffffffffffff160217905550808273ffffffffffffffffffffffffffffffffffffffff16600073ffffffffffffffffffffffffffffffffffffffff167fddf252ad1be2c89b69c2b068fc378daa952ba7f163c4a11628f55a4df523b3ef60405160405180910390a4610d07600083836001611440565b5050565b600080610d17836105ba565b90508073ffffffffffffffffffffffffffffffffffffffff168473ffffffffffffffffffffffffffffffffffffffff161480610d595750610d58818561086b565b5b80610d9757508373ffffffffffffffffffffffffffffffffffffffff16610d7f846103b4565b73ffffffffffffffffffffffffffffffffffffffff16145b91505092915050565b8273ffffffffffffffffffffffffffffffffffffffff16610dc0826105ba565b73ffffffffffffffffffffffffffffffffffffffff1614610e16576040517f08c379a0000000000000000000000000000000000000000000000000000000008152600401610e0d9061224b565b60405180910390fd5b600073ffffffffffffffffffffffffffffffffffffffff168273ffffffffffffffffffffffffffffffffffffffff161415610e86576040517f08c379a0000000000000000000000000000000000000000000000000000000008152600401610e7d906122dd565b60405180910390fd5b610e93838383600161143a565b8273ffffffffffffffffffffffffffffffffffffffff16610eb3826105ba565b73ffffffffffffffffffffffffffffffffffffffff1614610f09576040517f08c379a0000000000000000000000000000000000000000000000000000000008152600401610f009061224b565b60405180910390fd5b6004600082815260200190815260200160002060006101000a81549073ffffffffffffffffffffffffffffffffffffffff02191690556001600360008573ffffffffffffffffffffffffffffffffffffffff1673ffffffffffffffffffffffffffffffffffffffff168152602001908152602001600020600082825403925050819055506001600360008473ffffffffffffffffffffffffffffffffffffffff1673ffffffffffffffffffffffffffffffffffffffff16815260200190815260200160002060008282540192505081905550816002600083815260200190815260200160002060006101000a81548173ffffffffffffffffffffffffffffffffffffffff021916908373ffffffffffffffffffffffffffffffffffffffff160217905550808273ffffffffffffffffffffffffffffffffffffffff168473ffffffffffffffffffffffffffffffffffffffff167fddf252ad1be2c89b69c2b068fc378daa952ba7f163c4a11628f55a4df523b3ef60405160405180910390a46110958383836001611440565b505050565b60006002600083815260200190815260200160002060009054906101000a900473ffffffffffffffffffffffffffffffffffffffff169050919050565b8173ffffffffffffffffffffffffffffffffffffffff168373ffffffffffffffffffffffffffffffffffffffff161415611146576040517f08c379a000000000000000000000000000000000000000000000000000000000815260040161113d90612349565b60405180910390fd5b80600560008573ffffffffffffffffffffffffffffffffffffffff1673ffffffffffffffffffffffffffffffffffffffff16815260200190815260200160002060008473ffffffffffffffffffffffffffffffffffffffff1673ffffffffffffffffffffffffffffffffffffffff16815260200190815260200160002060006101000a81548160ff0219169083151502179055508173ffffffffffffffffffffffffffffffffffffffff168373ffffffffffffffffffffffffffffffffffffffff167f17307eab39ab6107e8899845ad3d59bd9653f200f220920489ca2b5937696c318360405161123791906117f8565b60405180910390a3505050565b61124f848484610da0565b61125b84848484611446565b61129a576040517f08c379a0000000000000000000000000000000000000000000000000000000008152600401611291906123db565b60405180910390fd5b50505050565b606060405180602001604052806000815250905090565b6060600060016112c6846115ce565b01905060008167ffffffffffffffff8111156112e5576112e4611b19565b5b6040519080825280601f01601f1916602001820160405280156113175781602001600182028036833780820191505090505b509050600082602001820190505b600115611384578080600190039150507f3031323334353637383961626364656600000000000000000000000000000000600a86061a8153600a858161136e5761136d6123fb565b5b049450600085141561137f57611384565b611325565b819350505050919050565b60007f01ffc9a7000000000000000000000000000000000000000000000000000000007bffffffffffffffffffffffffffffffffffffffffffffffffffffffff1916827bffffffffffffffffffffffffffffffffffffffffffffffffffffffff1916149050919050565b60008073ffffffffffffffffffffffffffffffffffffffff1661141b8361109a565b73ffffffffffffffffffffffffffffffffffffffff1614159050919050565b50505050565b50505050565b60006114678473ffffffffffffffffffffffffffffffffffffffff16611721565b156115c1578373ffffffffffffffffffffffffffffffffffffffff1663150b7a02611490610a2c565b8786866040518563ffffffff1660e01b81526004016114b2949392919061247f565b6020604051808303816000875af19250505080156114ee57506040513d601f19601f820116820180604052508101906114eb91906124e0565b60015b611571573d806000811461151e576040519150601f19603f3d011682016040523d82523d6000602084013e611523565b606091505b50600081511415611569576040517f08c379a0000000000000000000000000000000000000000000000000000000008152600401611560906123db565b60405180910390fd5b805181602001fd5b63150b7a0260e01b7bffffffffffffffffffffffffffffffffffffffffffffffffffffffff1916817bffffffffffffffffffffffffffffffffffffffffffffffffffffffff1916149150506115c6565b600190505b949350505050565b600080600090507a184f03e93ff9f4daa797ed6e38ed64bf6a1f010000000000000000831061162c577a184f03e93ff9f4daa797ed6e38ed64bf6a1f0100000000000000008381611622576116216123fb565b5b0492506040810190505b6d04ee2d6d415b85acef81000000008310611669576d04ee2d6d415b85acef8100000000838161165f5761165e6123fb565b5b0492506020810190505b662386f26fc10000831061169857662386f26fc10000838161168e5761168d6123fb565b5b0492506010810190505b6305f5e10083106116c1576305f5e10083816116b7576116b66123fb565b5b0492506008810190505b61271083106116e65761271083816116dc576116db6123fb565b5b0492506004810190505b6064831061170957606483816116ff576116fe6123fb565b5b0492506002810190505b600a8310611718576001810190505b80915050919050565b6000808273ffffffffffffffffffffffffffffffffffffffff163b119050919050565b6000604051905090565b600080fd5b600080fd5b60007fffffffff0000000000000000000000000000000000000000000000000000000082169050919050565b61178d81611758565b811461179857600080fd5b50565b6000813590506117aa81611784565b92915050565b6000602082840312156117c6576117c561174e565b5b60006117d48482850161179b565b91505092915050565b60008115159050919050565b6117f2816117dd565b82525050565b600060208201905061180d60008301846117e9565b92915050565b6000819050919050565b61182681611813565b82525050565b6000602082019050611841600083018461181d565b92915050565b600081519050919050565b600082825260208201905092915050565b60005b83811015611881578082015181840152602081019050611866565b83811115611890576000848401525b50505050565b6000601f19601f8301169050919050565b60006118b282611847565b6118bc8185611852565b93506118cc818560208601611863565b6118d581611896565b840191505092915050565b600060208201905081810360008301526118fa81846118a7565b905092915050565b61190b81611813565b811461191657600080fd5b50565b60008135905061192881611902565b92915050565b6000602082840312156119445761194361174e565b5b600061195284828501611919565b91505092915050565b600073ffffffffffffffffffffffffffffffffffffffff82169050919050565b60006119868261195b565b9050919050565b6119968161197b565b82525050565b60006020820190506119b1600083018461198d565b92915050565b6119c08161197b565b81146119cb57600080fd5b50565b6000813590506119dd816119b7565b92915050565b600080604083850312156119fa576119f961174e565b5b6000611a08858286016119ce565b9250506020611a1985828601611919565b9150509250929050565b600080600060608486031215611a3c57611a3b61174e565b5b6000611a4a868287016119ce565b9350506020611a5b868287016119ce565b9250506040611a6c86828701611919565b9150509250925092565b600060208284031215611a8c57611a8b61174e565b5b6000611a9a848285016119ce565b91505092915050565b611aac816117dd565b8114611ab757600080fd5b50565b600081359050611ac981611aa3565b92915050565b60008060408385031215611ae657611ae561174e565b5b6000611af4858286016119ce565b9250506020611b0585828601611aba565b9150509250929050565b600080fd5b600080fd5b7f4e487b7100000000000000000000000000000000000000000000000000000000600052604160045260246000fd5b611b5182611896565b810181811067ffffffffffffffff82111715611b7057611b6f611b19565b5b80604052505050565b6000611b83611744565b9050611b8f8282611b48565b919050565b600067ffffffffffffffff821115611baf57611bae611b19565b5b611bb882611896565b9050602081019050919050565b82818337600083830152505050565b6000611be7611be284611b94565b611b79565b905082815260208101848484011115611c0357611c02611b14565b5b611c0e848285611bc5565b509392505050565b600082601f830112611c2b57611c2a611b0f565b5b8135611c3b848260208601611bd4565b91505092915050565b60008060008060808587031215611c5e57611c5d61174e565b5b6000611c6c878288016119ce565b9450506020611c7d878288016119ce565b9350506040611c8e87828801611919565b925050606085013567ffffffffffffffff811115611caf57611cae611753565b5b611cbb87828801611c16565b91505092959194509250565b60008060408385031215611cde57611cdd61174e565b5b6000611cec858286016119ce565b9250506020611cfd858286016119ce565b9150509250929050565b7f4e487b7100000000000000000000000000000000000000000000000000000000600052602260045260246000fd5b60006002820490506001821680611d4e57607f821691505b60208210811415611d6257611d61611d07565b5b50919050565b7f4552433732313a20617070726f76616c20746f2063757272656e74206f776e6560008201527f7200000000000000000000000000000000000000000000000000000000000000602082015250565b6000611dc4602183611852565b9150611dcf82611d68565b604082019050919050565b60006020820190508181036000830152611df381611db7565b9050919050565b7f4552433732313a20617070726f76652063616c6c6572206973206e6f7420746f60008201527f6b656e206f776e6572206f7220617070726f76656420666f7220616c6c000000602082015250565b6000611e56603d83611852565b9150611e6182611dfa565b604082019050919050565b60006020820190508181036000830152611e8581611e49565b9050919050565b7f4e487b7100000000000000000000000000000000000000000000000000000000600052601160045260246000fd5b6000611ec682611813565b9150611ed183611813565b9250827fffffffffffffffffffffffffffffffffffffffffffffffffffffffffffffffff03821115611f0657611f05611e8c565b5b828201905092915050565b7f4552433732313a2063616c6c6572206973206e6f7420746f6b656e206f776e6560008201527f72206f7220617070726f76656400000000000000000000000000000000000000602082015250565b6000611f6d602d83611852565b9150611f7882611f11565b604082019050919050565b60006020820190508181036000830152611f9c81611f60565b9050919050565b7f4552433732313a20696e76616c696420746f6b656e2049440000000000000000600082015250565b6000611fd9601883611852565b9150611fe482611fa3565b602082019050919050565b6000602082019050818103600083015261200881611fcc565b9050919050565b7f4552433732313a2061646472657373207a65726f206973206e6f74206120766160008201527f6c6964206f776e65720000000000000000000000000000000000000000000000602082015250565b600061206b602983611852565b91506120768261200f565b604082019050919050565b6000602082019050818103600083015261209a8161205e565b9050919050565b600081905092915050565b60006120b782611847565b6120c181856120a1565b93506120d1818560208601611863565b80840191505092915050565b60006120e982856120ac565b91506120f582846120ac565b91508190509392505050565b7f4552433732313a206d696e7420746f20746865207a65726f2061646472657373600082015250565b6000612137602083611852565b915061214282612101565b602082019050919050565b600060208201905081810360008301526121668161212a565b9050919050565b7f4552433732313a20746f6b656e20616c7265616479206d696e74656400000000600082015250565b60006121a3601c83611852565b91506121ae8261216d565b602082019050919050565b600060208201905081810360008301526121d281612196565b9050919050565b7f4552433732313a207472616e736665722066726f6d20696e636f72726563742060008201527f6f776e6572000000000000000000000000000000000000000000000000000000602082015250565b6000612235602583611852565b9150612240826121d9565b604082019050919050565b6000602082019050818103600083015261226481612228565b9050919050565b7f4552433732313a207472616e7366657220746f20746865207a65726f2061646460008201527f7265737300000000000000000000000000000000000000000000000000000000602082015250565b60006122c7602483611852565b91506122d28261226b565b604082019050919050565b600060208201905081810360008301526122f6816122ba565b9050919050565b7f4552433732313a20617070726f766520746f2063616c6c657200000000000000600082015250565b6000612333601983611852565b915061233e826122fd565b602082019050919050565b6000602082019050818103600083015261236281612326565b9050919050565b7f4552433732313a207472616e7366657220746f206e6f6e20455243373231526560008201527f63656976657220696d706c656d656e7465720000000000000000000000000000602082015250565b60006123c5603283611852565b91506123d082612369565b604082019050919050565b600060208201905081810360008301526123f4816123b8565b9050919050565b7f4e487b7100000000000000000000000000000000000000000000000000000000600052601260045260246000fd5b600081519050919050565b600082825260208201905092915050565b60006124518261242a565b61245b8185612435565b935061246b818560208601611863565b61247481611896565b840191505092915050565b6000608082019050612494600083018761198d565b6124a1602083018661198d565b6124ae604083018561181d565b81810360608301526124c08184612446565b905095945050505050565b6000815190506124da81611784565b92915050565b6000602082840312156124f6576124f561174e565b5b6000612504848285016124cb565b9150509291505056fea2646970667358221220bf52c5685b2c6cdef173e1b177347da5b5dfbcfa40adaa646b30806a62d76b2e64736f6c634300080b0033",
  "linkReferences": {},
  "deployedLinkReferences": {}
}